:020000040800F2
:1000000000800120A1750008D1010008D10100087D
:10001000D1010008D1010008D10100080000000052
:100020000000000000000000000000003164000833
:100030008D77000800000000116500088F77000828
:10004000F1750008F1750008F1750008F1750008F8
:10005000F1750008F1750008F1750008BD7700081A
:10006000F1750008F1750008F1750008F1750008D8
:10007000F1750008F1750008F1750008F1750008C8
:10008000F1750008F1750008F1750008F1750008B8
:10009000F1750008F1750008F1750008F1750008A8
:1000A000F1750008F1750008F1750008F175000898
:1000B000F1750008F1750008F1750008F175000888
:1000C000F1750008F1750008F1750008F175000878
:1000D000F1750008DDA80008F1A8000805A90008CE
:1000E000B1770008F1750008F1750008F175000896
:1000F000F1750008F1750008F1750008F175000848
:10010000F1750008F1750008F175000889730008A1
:1001100019A900082DA90008A1770008F1750008A9
:10012000F1750008F1750008F1750008F175000817
:10013000F1750008F1750008F1750008F175000807
:10014000F1750008F1750008F1750008F1750008F7
:10015000F1750008F1750008F1750008F1750008E7
:10016000F1750008F1750008F1750008F1750008D7
:10017000F1750008F17500080000000000000000A3
:08018000F1750008F17500089B
:1001900010B5054C237833B9044B13B10448AFF3C1
:1001A00000800123237010BD00000020000000002B
:1001B000000A010808B5034B1BB103490348AFF31C
:1001C000008008BD0000000004000020000A0108B3
:1001D000EFF30383EFF30982EFF30881DFF814D024
:1001E0002DE9FE4F684600F095FEBDE8FE4F8D46B6
:1001F00070470000CC040020F1EE101AA0EC200A99
:1002000001607047A0EC108A704700BF034613F8E6
:10021000012B002AFBD1181A01387047000000009A
:1002200001F0FF01102A2BDB10F0070F08D010F8A7
:10023000013B013A8B422DD010F0070F42B3F6D1AB
:10024000F0B441EA012141EA014122F007047FF0C4
:1002500000070023F0E80256083C85EA010586EA1B
:10026000010685FA47F5A3FA87F586FA47F6A5FA57
:1002700087F68EB9EED1F0BC01F0FF0102F0070263
:1002800032B110F8013B013A83EA010313B1F8D10E
:100290000020704701387047002D06BF35460338EF
:1002A000073815F0010F07D1013015F4807F02BF28
:1002B000013015F4C03F0130F0BC0138704700BF79
:1002C00081F0004102E000BF83F0004330B54FEA07
:1002D00041044FEA430594EA050F08BF90EA020F74
:1002E0001FBF54EA000C55EA020C7FEA645C7FEA07
:1002F000655C00F0E2804FEA5454D4EB5555B8BF2A
:100300006D420CDD2C4480EA020281EA030382EA9A
:10031000000083EA010180EA020281EA0303362D2C
:1003200088BF30BD11F0004F4FEA01314FF4801CFF
:100330004CEA113102D0404261EB410113F0004F11
:100340004FEA03334CEA133302D0524263EB4303C8
:1003500094EA050F00F0A780A4F10104D5F1200E66
:100360000DDB02FA0EFC22FA05F2801841F10001C1
:1003700003FA0EF2801843FA05F359410EE0A5F195
:1003800020050EF1200E012A03FA0EFC28BF4CF0C6
:10039000020C43FA05F3C01851EBE37101F000457C
:1003A00007D54FF0000EDCF1000C7EEB00006EEB89
:1003B0000101B1F5801F1BD3B1F5001F0CD3490813
:1003C0005FEA30004FEA3C0C04F101044FEA44526A
:1003D00012F5800F80F09A80BCF1004F08BF5FEAF1
:1003E000500C50F1000041EB045141EA050130BDD1
:1003F0005FEA4C0C404141EB0101013C28BFB1F5E3
:10040000801FE9D291F0000F04BF01460020B1FA2D
:1004100081F308BF2033A3F10B03B3F120020CDA00
:100420000C3208DD02F1140CC2F10C0201FA0CF0DE
:1004300021FA02F10CE002F11402D8BFC2F1200C43
:1004400001FA02F120FA0CFCDCBF41EA0C019040F9
:10045000E41AA2BF01EB0451294330BD6FEA040442
:100460001F3C1CDA0C340EDC04F11404C4F120022D
:1004700020FA04F001FA02F340EA030021FA04F33F
:1004800045EA030130BDC4F10C04C4F1200220FA96
:1004900002F001FA04F340EA0300294630BD21FAD4
:1004A00004F0294630BD94F0000F83F4801306BF9A
:1004B00081F480110134013D4EE77FEA645C18BF8E
:1004C0007FEA655C29D094EA050F08BF90EA020F25
:1004D00005D054EA000C04BF1946104630BD91EA1D
:1004E000030F1EBF0021002030BD5FEA545C05D120
:1004F0004000494128BF41F0004130BD14F580045F
:100500003CBF01F5801130BD01F0004545F0FE41D2
:1005100041F470014FF0000030BD7FEA645C1ABF07
:10052000194610467FEA655C1CBF0B46024650EA3E
:10053000013406BF52EA033591EA030F41F400216A
:1005400030BD00BF90F0000F04BF0021704730B5F0
:100550004FF4806404F132044FF000054FF00001C5
:1005600050E700BF90F0000F04BF0021704730B586
:100570004FF4806404F1320410F0004548BF40425B
:100580004FF000013EE700BF42004FEAE2014FEAB0
:1005900031014FEA02701FBF12F07F4393F07F4F8B
:1005A00081F06051704732F07F4208BF704793F08E
:1005B0007F4F04BF41F40021704730B54FF46074A1
:1005C00001F0004521F000411CE700BF50EA0102A4
:1005D00008BF704730B54FF000050AE050EA01024D
:1005E00008BF704730B511F0004502D5404261EBBD
:1005F00041014FF4806404F132045FEA915C3FF4FE
:10060000D8AE4FF003025FEADC0C18BF03325FEA9A
:10061000DC0C18BF033202EBDC02C2F1200300FA4B
:1006200003FC20FA02F001FA03FE40EA0E0021FA70
:1006300002F11444BDE600BF70B54FF0FF0C4CF45E
:10064000E06C1CEA11541DBF1CEA135594EA0C0F10
:1006500095EA0C0F00F0DEF82C4481EA030621EA4B
:100660004C5123EA4C5350EA013518BF52EA033586
:1006700041F4801143F4801338D0A0FB02CE4FF038
:100680000005E1FB02E506F00042E0FB03E54FF068
:100690000006E1FB03569CF0000F18BF4EF0010E60
:1006A000A4F1FF04B6F5007F64F5407404D25FEA5C
:1006B0004E0E6D4146EB060642EAC62141EA55510F
:1006C0004FEAC52040EA5E504FEACE2EB4F1FD0C51
:1006D00088BFBCF5E06F1ED8BEF1004F08BF5FEACF
:1006E000500E50F1000041EB045170BD06F0004681
:1006F00046EA010140EA020081EA0301B4EB5C042E
:10070000C2BFD4EB0C0541EA045170BD41F4801125
:100710004FF0000E013C00F3AB8014F1360FDEBF4A
:10072000002001F0004170BDC4F10004203C35DA26
:100730000C341BDC04F11404C4F1200500FA05F3A9
:1007400020FA04F001FA05F240EA020001F000424A
:1007500021F0004110EBD37021FA04F642EB0601C0
:100760005EEA430E08BF20EAD37070BDC4F10C04EA
:10077000C4F1200500FA04F320FA05F001FA04F2AE
:1007800040EA020001F0004110EBD37041F100019A
:100790005EEA430E08BF20EAD37070BDC4F12005A5
:1007A00000FA05F24EEA020E20FA04F301FA05F20D
:1007B00043EA020321FA04F001F0004121FA04F2B5
:1007C00020EA020000EBD3705EEA430E08BF20EA85
:1007D000D37070BD94F0000F0FD101F000464000BF
:1007E00041EB010111F4801F08BF013CF7D041EA41
:1007F000060195F0000F18BF704703F00046520045
:1008000043EB030313F4801F08BF013DF7D043EA15
:100810000603704794EA0C0F0CEA135518BF95EACB
:100820000C0F0CD050EA410618BF52EA4306D1D152
:1008300081EA030101F000414FF0000070BD50EA71
:10084000410606BF1046194652EA430619D094EAFB
:100850000C0F02D150EA013613D195EA0C0F05D1E5
:1008600052EA03361CBF104619460AD181EA030139
:1008700001F0004141F0FE4141F470014FF00000F1
:1008800070BD41F0FE4141F4780170BD70B54FF08C
:10089000FF0C4CF4E06C1CEA11541DBF1CEA13550C
:1008A00094EA0C0F95EA0C0F00F0A7F8A4EB0504EE
:1008B00081EA030E52EA03354FEA013100F08880E5
:1008C0004FEA03334FF0805545EA131343EA1263AE
:1008D0004FEA022245EA111545EA10654FEA002663
:1008E0000EF000419D4208BF964244F1FD0404F51C
:1008F000407402D25B084FEA3202B61A65EB030578
:100900005B084FEA32024FF480104FF4002CB6EB34
:10091000020E75EB030E22BFB61A754640EA0C00B4
:100920005B084FEA3202B6EB020E75EB030E22BFF4
:10093000B61A754640EA5C005B084FEA3202B6EB35
:10094000020E75EB030E22BFB61A754640EA9C00F4
:100950005B084FEA3202B6EB020E75EB030E22BFC4
:10096000B61A754640EADC0055EA060E18D04FEA82
:10097000051545EA16754FEA06164FEAC30343EA22
:1009800052734FEAC2025FEA1C1CC0D111F4801FEF
:100990000BD141EA00014FF000004FF0004CB6E7E8
:1009A00011F4801F04BF01430020B4F1FD0C88BF87
:1009B000BCF5E06F3FF6AFAEB5EB030C04BFB6EB92
:1009C000020C5FEA500C50F1000041EB045170BD85
:1009D0000EF0004E4EEA113114EB5C04C2BFD4EBB2
:1009E0000C0541EA045170BD41F480114FF0000E36
:1009F000013C90E645EA060E8DE60CEA135594EAB2
:100A00000C0F08BF95EA0C0F3FF43BAF94EA0C0FB4
:100A10000AD150EA01347FF434AF95EA0C0F7FF429
:100A200025AF104619462CE795EA0C0F06D152EA7D
:100A300003353FF4FDAE1046194622E750EA410661
:100A400018BF52EA43067FF4C5AE50EA41047FF472
:100A50000DAF52EA43057FF4EBAE12E74FF0FF3CD7
:100A600006E000BF4FF0010C02E000BF4FF0010CA8
:100A70004DF804CD4FEA410C7FEA6C5C4FEA430C21
:100A800018BF7FEA6C5C1BD001B050EA410C0CBF70
:100A900052EA430C91EA030F02BF90EA020F0020D2
:100AA000704710F1000F91EA030F58BF994208BF39
:100AB00090422CBFD8176FEAE37040F001007047F6
:100AC0004FEA410C7FEA6C5C02D150EA013C07D14D
:100AD0004FEA430C7FEA6C5CD6D152EA033CD3D098
:100AE0005DF8040B704700BF8446104662468C4692
:100AF0001946634600E000BF01B5FFF7B7FF0028C5
:100B000048BF10F1000F01BD4DF808EDFFF7F4FFED
:100B10000CBF012000205DF808FB00BF4DF808ED78
:100B2000FFF7EAFF34BF012000205DF808FB00BF9B
:100B30004DF808EDFFF7E0FF94BF012000205DF8BD
:100B400008FB00BF4DF808EDFFF7CEFF94BF012072
:100B500000205DF808FB00BF4DF808EDFFF7C4FF6B
:100B600034BF012000205DF808FB00BF4FEA410CB4
:100B70007FEA6C5C02D150EA013C0AD14FEA430C97
:100B80007FEA6C5C02D152EA033C02D14FF00000D4
:100B900070474FF0010070474FEA410212F5001212
:100BA00015D211D56FF47873B3EB625212D94FEAB4
:100BB000C12343F0004343EA505311F0004F23FA9E
:100BC00002F018BF404270474FF00000704750EAF3
:100BD000013005D111F0004008BF6FF000407047B0
:100BE0004FF00000704700BF53B94AB9002908BF51
:100BF00000281CBF4FF0FF314FF0FF3000F06AB902
:100C0000ADF1080C6DE904CE00F006F8DDF804E063
:100C1000DDE9022304B070472DE9F047089D0C463A
:100C2000002B4ED194468C458646B2FA82F262D9A8
:100C30004AB1C2F12003914020FA03F30CFA02FCFE
:100C4000194300FA02FE4FEA1C471FFA8CF6B1FB6B
:100C5000F7F44FEA1E4307FB141143EA014304FB78
:100C600006F199420AD91CEB030304F1FF3080F02E
:100C70001281994240F20F81023C6344591A1FFAD3
:100C80008EF3B1FBF7F007FB101143EA014300FBC1
:100C900006F69E420AD91CEB030300F1FF3180F0F7
:100CA000FC809E4240F2F980634402389B1B40EA7C
:100CB000044000211DB1D3400022C5E90032BDE847
:100CC000F0878B4205D90DB1C5E900010021084626
:100CD000F5E7B3FA83F1002946D1A34202D390424B
:100CE000C0F0F080861A64EB03030120002DE6D0EB
:100CF000C5E90063E3E7002A40F09080A1EB0C0413
:100D00004FEA1C481FFA8CF70121B4FBF8F64FEAB2
:100D10001E4308FB164443EA044307FB06F09842CF
:100D200008D91CEB030306F1FF3402D2984200F20B
:100D3000CD8026461C1A1FFA8EF3B4FBF8F008FB90
:100D4000104443EA044300FB07F79F4208D91CEB19
:100D5000030300F1FF3402D29F4200F2B08020462C
:100D6000DB1B40EA0640A5E7C1F120068B4022FAD2
:100D700006F71F4320FA06FC04FA01F343EA0C03CA
:100D8000F44000FA01F8380C4FEA1349B4FBF0FEC6
:100D90001FFA87FC00FB1E4449EA04440EFB0CF9D1
:100DA000A14502FA01F20AD93C190EF1FF3A80F08E
:100DB0008480A14540F28180AEF1020E3C44A4EB58
:100DC00009041FFA83F9B4FBF0F300FB134449EA6A
:100DD000044403FB0CFCA44507D93C1903F1FF3084
:100DE00067D2A44565D9023B3C4443EA0E40A0FBD0
:100DF0000293A4EB0C049C42CE469C4651D34ED0A9
:100E000055B1B8EB0E0364EB0C0404FA06F6CB40C4
:100E10001E43CC40C5E90064002150E7C2F1200325
:100E200020FA03F10CFA02FC24FA03F394400C4379
:100E30004FEA1C4800FA02FE1FFA8CF7B3FBF8F0E9
:100E400008FB1031230C43EA014300FB07F19942F0
:100E500008D91CEB030300F1FF362CD299422AD9A2
:100E6000023863445B1AA4B2B3FBF8F108FB1133F8
:100E700044EA034401FB07F3A34208D91CEB040432
:100E800001F1FF3613D2A34211D902396444E41AA6
:100E900041EA004139E70446F0E6084606E7C8455E
:100EA000AED2B9EB020E63EB070C0138A8E731466E
:100EB000EDE7034699E73046D4E7D6467FE763443B
:100EC00002384DE70646234608460FE7023E6344D4
:100ED00030E700BF704700BFD0B170B504460826A8
:100EE00001250EE03246294600F0A4FD54F80C0C12
:100EF00014F8041C54F8082C121AB2FBF1F200F09A
:100F000099FD204654F80C3BB3F1FF3FEAD170BD88
:100F1000704700002DE9F04FA9B0714B1B68279373
:100F20004FF00003C26A12F0040F14BF4368036855
:100F3000194612F0100F14BF20336833009001914E
:100F4000CA69D20902F00402134303934FF0E0226E
:100F5000D2F8883D03F4A003B3F5A00F14BF00231B
:100F600001230293D2F8003D03F47023B3F5402F20
:100F700005D05C4B9B6A40F201121A4210D18B697A
:100F80001B8803F47F43B3F53E4F14BF00230123B6
:100F90000493554F554E04250124DFF85C8142E04F
:100FA0000023F5E7009BDB6A13F0100F23D115A88F
:100FB000FFF728F9DDF804A00AF1200C0DF114095F
:100FC0000AF1600BCE46DCF80000DCF80410DCF817
:100FD0000820DCF80C30AEE80F000CF1100CF146E4
:100FE000DC45EFD1DAF8603025938422214605A84C
:100FF00000F020FD4AE005A8FFF7FEF8F5E73C4BBE
:101000000593143306938DF81C504FF0FF3308936B
:1010100009938DF8284005A8FFF75EFF43E000F034
:1010200079FD00284AD13E6003A800F001FC2A4661
:101030002146304800F0FEFC2A46214602A800F076
:10104000F9FC10222146019800F0F4FC20222146F0
:1010500000980C3000F0EEFC2A4621460198103032
:1010600000F0E8FC2A46214603A800F0E3FC0C222D
:1010700021460198143000F0DDFC0C222146009836
:1010800000F0D8FC029B13F0010F8BD100F0C4FBE1
:10109000FFF722FF4FF0E023D3F8003D03F4702365
:1010A000B3F5402FABD13B68B342B8D0CDF89880B0
:1010B0002A46214626A800F0BDFCB0E7049B1BB1E0
:1010C000019A936902339361054B1A68279B5A4032
:1010D0004FF0000302D129B0BDE8F08F00F052FDBF
:1010E0004000001000ED00E01C000020ED55CEACEB
:1010F00028ED00E0180A0108ACCE55ED2DE9F043CB
:1011000087B0374B1B6805934FF00003354B1B68C6
:10111000002B55D00646002854D001A900F010FF3E
:10112000012850D0019BB3F5803F01D301204AE054
:101130002D4805F0C9FEDDF80480B8F1000F2FDD61
:10114000013E0024DFF8B490284F05E0284805F060
:10115000BBFE12E0A04522D016F8013F4A460A2104
:1011600002A809F00FFD87FB0432E317C3EBE2038B
:1011700003EB8303B4EB830FE8D002A805F0A4FED1
:10118000013487FB0423E517C5EBE30505EB850573
:10119000B4EB8505DED1174805F096FEDAE75DB9B8
:1011A000104C0023144A5021206809F0EBFC206801
:1011B00005F08AFE002006E00E4805F085FEEFE708
:1011C000012000E00120064B1A68059B5A404FF0B1
:1011D000000302D107B0BDE8F08300F0D3FC00BFEC
:1011E00040000010CC040020880A0108676666668B
:1011F000B00A0108E00A0108BC0A0108A80A0108AF
:10120000014B186000207047CC04002008B5FFF7A0
:1012100075FF08BD08B5FFF771FF08BDC0B370B515
:101220000C460646B1B31C4D40F614420021284638
:1012300009F03FFDC5F8146CC5F8184C281D00F0E6
:10124000AFFE012827D005F1A40000F095FE01288B
:1012500021D005F5037000F007F901281BD005F532
:10126000707000F079FD012815D005F1B00000F094
:101270004DFA01280FD005F1A80001F03DF8012832
:1012800009D001222A60002000F0B6FE002002E012
:1012900001207047012070BDD0040020014B186868
:1012A000704700BFD004002010B400238371036195
:1012B000034600F1400100225A619A6108338B42D3
:1012C000FAD10023437280F89C300B4B1C682346F4
:1012D00004F1C0010022C3F8F020C3F8F42083F821
:1012E000F82018338B42F6D10023C4F8B031C0F88F
:1012F000E8305DF8044B7047EC10002008B501F0B1
:101300008DF8002008BD08B501F046F808BD08B505
:1013100000F048FA002008BD08B500F009FA08BD41
:101320002DE9F04F8DB008914C4B1B680B934FF09B
:10133000000300230A93002800F08180044600295E
:101340007FD0474B1B68043304930AA9184600F06A
:101350000FFD012876D00A98A047012872D0404B93
:101360001B68D3F8B00100286CD04FF0F8090024B6
:101370000AAFDFF8ECB032E0AA4526D0DBF8003047
:10138000059A9A18D2F8F440A4EB0804B4F5FA6F61
:1013900028BF4FF4FA6435460136B6B203974B4482
:1013A00002930194D2F8F03043440093079B3246F5
:1013B0000699049800F0A0FD0128DDD00A98089B4A
:1013C000984701283ED0A044D6E7099C0134DBF8B9
:1013D000003009F11809D3F8B021A2422DD904EB4D
:1013E000440203EBC202D2F8F450621C1FFA82FAE4
:1013F00000974B442A465146049800F0F7FC012818
:10140000E4D00A98089B984701281BD0691E154B09
:10141000A3FB0131C1F3CF114B1C9BB2002BD5D0E4
:101420004FF00008464604EB4402D2000592CDF886
:1014300018A08A4607930994A0E7002002E0012043
:1014400000E00120054B1A680B9B5A404FF0000347
:1014500002D10DB0BDE8F08F00F094FB4000001009
:10146000EC100020D34D6210002839D010B51E4A70
:1014700010600021C0F8B0110121016014688CB324
:1014800050232371442363716623A3716D23E37199
:101490004FF47F6323810323A3720823237348231C
:1014A000E372A3732161114904F1570304F19F0012
:1014B00011F8012B03F8012F0AB18342F8D1201D46
:1014C000FFF7F2FE6D2384F8E830662384F8E930F4
:1014D000442384F8EA30502384F8EB30002010BD18
:1014E000012070470120FAE7EC100020CC340020E6
:1014F0002DE9F04180460D46164600F0DDFD20B393
:10150000174B1C6824B3236823B32EB335B32B7851
:101510000BB901201AE0271D3846FFF7C5FE03234B
:10152000A372C4F8148000F07BFE01280ED0691E5F
:1015300004F19F03473511F8010F03F8010F08B1BB
:10154000A942F8D13760002000E00120BDE8F08119
:101550000120FBE70120F9E70120F7E70120F5E78B
:10156000EC10002070B506460D46144600F0A4FDB0
:10157000C8B1114B1B68C3B11A68C2B1CEB15A7B56
:10158000072A0BD806EBC20255615A7B06EBC20054
:1015900084615A7B01325A73002005E0042000F078
:1015A00065FE012000E0012070BD0120FCE7012064
:1015B000FAE70120F8E700BFEC1000202DE9F04128
:1015C0000746884616461D4600F076FD48B31E4B7A
:1015D0001C684CB323684BB357B3B8F1000F29D044
:1015E00056B35DB32B785BB3D4F8B071072F29D80D
:1015F00007EB470304EBC303C3F8F080C3F8F460C0
:101600006A1E1846F73005F10F0312F8011F00F8A3
:10161000011F09B19A42F8D10137C4F8B071002016
:1016200000E00120BDE8F0810120FBE70120F9E79F
:101630000120F7E70120F5E70120F3E70120F1E7BA
:101640000120EFE70120EDE7EC10002038B504465B
:101650000D4600F031FD50B10A4B1B684BB11B68C1
:101660004BB154B15DB19C342C60002000E00120EE
:1016700038BD0120FCE70120FAE70120F8E701204E
:10168000F6E700BFEC10002070B506460D4600F0EE
:1016900013FD40B3184B1B6843B31B6843B34EB3F1
:1016A0000023C6F8E83015F4807F0DD115F4007FD3
:1016B00005D012491248FFF733FE044678B1304690
:1016C000FFF7F2FD01240FE00E490F48FFF728FE57
:1016D00004460028EAD13046FFF7E6FD04E0304634
:1016E000FFF7E2FD00E00124204670BD0124FBE786
:1016F0000124F9E70124F7E7EC100020FD120008AF
:10170000071300080F1300081913000860B110B583
:1017100004460430FFF774FD012804D0034B1C601D
:1017200001232360002010BD01207047F01000202D
:1017300010B582B0194B1B6801934FF000030023D2
:101740008DF80330164B1B68FBB104461B684BB980
:101750000120124B1A68019B5A404FF000031AD126
:1017600002B010BD00F0A8FC88B194B10DF10300E7
:1017700000F090FD0128ECD09DF803300BB901205A
:10178000E7E72046FFF742FDE3E70120E1E701201C
:10179000DFE70120DDE700F0F5F900BF40000010B1
:1017A000F010002010B582B0194B1B6801934FF068
:1017B000000300238DF80330164B1B68FBB1044671
:1017C0001B684BB90120124B1A68019B5A404FF01D
:1017D00000031AD102B010BD00F06EFC88B194B1C4
:1017E0000DF1030000F056FD0128ECD09DF8033008
:1017F0000BB90120E7E72046FFF70CFDE3E70120E6
:10180000E1E70120DFE70120DDE700F0BBF900BFE1
:1018100040000010F0100020034B1B6803480360D9
:1018200003F5967343607047F81000200000001025
:10183000F0B587B006466E4B1B6805934FF000036A
:101840000023029302686B4B1A605B68002B00F068
:10185000A380684B03F110029A60674805F034FBDF
:10186000664B1B6B002BC0F29C80644D2F21A86B34
:1018700009F04DFA441C624FEB6B019300946B6BC3
:10188000604A8021384609F07DF95F4805F01CFB6D
:10189000384605F019FB5D4805F016FB286B5549E5
:1018A00001F53A7201F51A71FFF722FE054600288C
:1018B00040F0988002A800F063FB4E4BD3F8E8029A
:1018C000029A002A7CD01378002B7BD0114602F1BB
:1018D000200C2A461A4411F8013F0BB16145F9D199
:1018E0000121FFF73FFE32680621424BD3F8E802A0
:1018F000FFF738FE414B1B6B002B65DB3D4BD3F8EC
:10190000E8024CB123783BB1224620341D4412F842
:10191000013F0BB1A242F9D12A460221FFF722FE74
:10192000364BDA6B0421334BD3F8E802FFF71AFE8B
:10193000304B03F51A71586801F0CAFF0023039376
:101940000493334B1B6813F0010F04D0314B1B6819
:101950005B68002B43D104A903A802F08BFA2E4B3D
:10196000049A03992348D0F8E802FFF727FE2B4892
:1019700005F0AAFA254805F0A7FA204B4FF0FF32F0
:101980001A6300225A631A4B1A68059B5A404FF09B
:1019900000032BD107B0F0BD2149224802F092FA92
:1019A00057E7214805F090FA4FF0E023D3F8283D9F
:1019B0001E4A8021124809F0E5F8002403206EE752
:1019C0002A468DE72A468BE74FF0E023D3F8282DEF
:1019D0000721084BD3F8E802FFF7C4FDA8E702F09F
:1019E00035FAB8E7124805F06FFAC3E700F0CAF815
:1019F00040000010F8100020F00A0108000000105C
:101A000060130020FC0A0108080B0108180D0108EA
:101A1000982400209C240020540B0108640B01082A
:101A2000FC100020E80A0108180B01082C0B010823
:101A3000800B010838B514462E4B9D682E4B1A6852
:101A40002E4B9A420CD1BCB12D4BEB1A022928D057
:101A500004293AD0012913D02A4805F035FA0EE0BE
:101A6000294805F031FA4FF0100383F31188BFF3D2
:101A70006F8FBFF34F8FFEE7244805F025FA38BD7E
:101A80002344B3F5167F08D222460146284609F0C2
:101A9000C9F92544174B9D60F1E71D4805F014FA7C
:101AA000EDE703EB4403B3F5167F0AD2002330F8C9
:101AB000022B25F8022B01339C42F8D10D4B9D607F
:101AC000DDE7134805F000FAD9E703EB8403B3F52B
:101AD000167F0AD2002350F8042B45F8042B01335B
:101AE0009C42F8D1034B9D60C9E7094805F0ECF929
:101AF000C5E700BFF81000201C000020ED55CEAC5B
:101B000008110020580C0108AC0B0108FC0B01085F
:101B1000280C010808B5144BD3F8E802A8B103F16A
:101B200010019A68114B521AFFF748FDA0B91048EE
:101B300005F0CAF94FF4E0610B4BD3F8E802FFF768
:101B4000A3FD68B90B4805F0BFF90B4805F0BCF9D7
:101B500006F036F8012008BD084805F0B5F9E9E7B8
:101B6000074805F0B1F9F0E7F8100020780C0108FB
:101B7000880C0108C80C0108040D0108A40C010818
:101B8000E40C0108074B09221A63074A5A63074A03
:101B90009A6340F25112DA63054A536843F00043F6
:101BA00053607047000000101C0D0108380D01083B
:101BB00000ED00E02DE9F04F85B098460F9D109E96
:101BC000129F634B1B6803934FF00003614BD3F8E4
:101BD00000A00023009301930293002D00F0A08049
:101BE0008346894614462B78002B00F09B80002EFC
:101BF00000F0A380119B002B00F0A180002F00F0CB
:101C0000A080002A00F09F80424501D901208AE08F
:101C1000684600F06BFA012800F0858001A800F00A
:101C200011FB01287FD002A800F0B0FA01287AD079
:101C3000D1238AF80430D2238AF80530D3238AF8D6
:101C40000630D4238AF807304FF47F63AAF80830AF
:101C50000123AAF80A30AAF80CB0AAF80E90AAF844
:101C60001040AAF81280019BCAF814302023AAF869
:101C70001830AAF81A300E9BAAF81C30119BCAF82B
:101C80002030344B186800F10408009BD3F800C0E2
:101C90005C689968DA68C0F824C08462C162026333
:101CA000D3F810C05C699969DA69C0F834C08463FC
:101CB000C1630264029BD3F800C05C689968DA686B
:101CC000C0F844C08464C1640265D3F810C05C6984
:101CD0009969DA69C0F854C08465C16502660E9AD4
:101CE0002946643009F09EF80E9B03F160044444D9
:101CF000119A3146204609F095F8119BE2189AF89E
:101D00000730119963549AF8063053709AF80530E9
:101D10009370534613F8041FD1703B60002002E01B
:101D2000012000E001200A4B1A68039B5A404FF043
:101D300000030AD105B0BDE8F08F0120F3E70120D0
:101D4000F1E70120EFE70120EDE7FFF71BFF00BF00
:101D500040000010E413002028B1044A1060012262
:101D60000260002070470120704700BFE41300208C
:101D700030B589B01B4B1B6807934FF0000300235D
:101D80000693194B1B68EBB104460D461B68DBB18B
:101D900020B306A9FFF75AFC012816D00495EC23BE
:101DA00003930294069B01934823009301231A4650
:101DB000002141F21250FFF7FDFE012814BF002060
:101DC000012002E0012000E00120064B1A68079B79
:101DD0005A404FF0000303D109B030BD0120F4E7B1
:101DE000FFF7D0FE40000010E41300202DE9F0437F
:101DF00091B080460E4691461D46189F3C4B1B688D
:101E00000F934FF000032422002106A808F051FF91
:101E1000384C2468002C51D02368002B50D0B8F1E6
:101E2000000F58D0B9F1000F57D0002D57D02B78A4
:101E3000002B56D0002F56D050238DF81830442256
:101E40008DF8192061228DF81A208DF81B304FF47F
:101E50007F63ADF81C3003238DF81E3010238DF8FE
:101E60001F30CDF820906A1E0DF1230405F10F03F9
:101E700012F8010F04F8010F08B19A42F8D150236B
:101E80008DF8343061228DF8352044228DF83620CB
:101E90008DF8373004972423039306AB0293019502
:101EA0001023009301231A46314644F21860FFF7CD
:101EB00081FE012814BF0020012002E0012000E083
:101EC00001200B4B1A680F9B5A404FF000030CD1B6
:101ED00011B0BDE8F0830120F3E70120F1E7012014
:101EE000EFE70120EDE70120EBE7FFF74BFE00BF36
:101EF00040000010E413002010B586B00F4C246899
:101F0000B4B12468B4B1B8B10B98049009980390A7
:101F1000089802900A9801901020009048F27130C1
:101F2000FFF748FE012814BF0020012006B010BDB5
:101F30000120FBE70120F9E70120F7E7E413002087
:101F40000C4B1B6873B11B6873B178B181B1C36965
:101F50002433828A1344C28A1344028B13440B60D5
:101F60000020704701207047012070470120704712
:101F700001207047E4130020B0FA80F04009704758
:101F800048B110B5044603F083FD30B103F03CFACC
:101F90002060002010BD012070470120FAE70000FA
:101FA00008B310B40446114B18600023C0F89C30ED
:101FB0000122C26003724272827202610C4A426064
:101FC00080F87C3080F85C300A4900F1130211F887
:101FD000013B02F8013F002BF9D1012323600020CF
:101FE0005DF8044B70470120704700BFE8130020E4
:101FF00003922871CC34002010B584B0294B1B68A3
:1020000003934FF00003002301930293264B1B68B8
:10201000002B3ED004461B684BB90120214B1A68A7
:10202000039B5A404FF0000339D104B010BDFFF7B5
:1020300035F900282FD01C4B1B685A681B4B9A425D
:102040002BD0082101A800F089F940B101230193A8
:10205000164B0293082101A800F062F90BE00198E9
:102060000128F3D1029B124A9342EFD0012C08D0F1
:10207000104A9342D2D00C4B1B680C4A5A60002085
:10208000CCE7A2F10752A2F51F126E3A9342F2D1A9
:10209000DCE70120C2E70120C0E70020BEE7FFF730
:1020A00071FD00BF40000010E81300202527151522
:1020B000715210930392287108B50A4B1B687BB1CB
:1020C000186800B908BDFFF7E9F80028FAD0054BF9
:1020D0001B685868044B984214BF00200120F1E7A8
:1020E0000020EFE7E81300202527151530B583B051
:1020F0000446234B1B6801934FF000030023009319
:10210000204B186818B302681AB364B390F87C20A7
:10211000BAB9827A012A28D11B4A15683DB36A46AA
:102120001F217C30A847012814D0164B1B6893F858
:102130007C20F2B1009A1F2A1DD81344002283F894
:102140007C20104B1B687C332360002002E00120C0
:1021500000E001200A4B1A68019B5A404FF000032F
:102160000BD103B030BD0120F4E70120F2E70120DC
:10217000F0E70120EEE70120ECE7FFF703FD00BFE9
:1021800040000010E8130020E410002030B583B0B8
:102190000446204B1B6801934FF00003002300937B
:1021A0001D4B186840B3026842B34CB390F85C20F2
:1021B000A2B91A4A15682DB36A461F215C30A84798
:1021C000012810D0144B1B6893F85C20E2B1009AF0
:1021D0001F2A1BD81344002283F85C200E4B1B6877
:1021E0005C33236000200B4B1A68019B5A404FF070
:1021F00000030DD103B030BD0120F4E70120F2E768
:102200000120F0E70120EEE70120ECE70120EAE7FA
:10221000FFF7B8FC40000010E8130020E810002091
:10222000074B1B6843B11A6842B1D3F89C200132B6
:10223000C3F89C20002070470120704701207047A0
:10224000E8130020084B1B683BB11A683AB140B153
:10225000D3F89C30036000207047012070470120B4
:1022600070470120704700BFE8130020084B1B682F
:102270003BB11A683AB11A69012A06D118610020E7
:10228000704701207047012070470120704700BF50
:10229000E8130020074B1B6833B11A6832B138B11C
:1022A0005B7A03700020704701207047012070475F
:1022B00001207047E8130020054B1B6823B11A6802
:1022C00022B118720020704701207047012070472A
:1022D000E8130020074B1B6833B11A6832B138B1DC
:1022E0001B7A03700020704701207047012070475F
:1022F00001207047E813002068B108B5074A106054
:10230000043000F0CDF8012804D0044B1B680122F2
:102310001A60002008BD0120704700BFEC130020A8
:1023200038B50D4B1B688BB104460D461B680BB9C5
:10233000012038BDFFF7C0FE50B15CB10DB90120DE
:10234000F7E72946204600F0B3F8F2E70120F0E76E
:102350000120EEE70120ECE7EC13002038B50D4B2F
:102360001B688BB104460D461B680BB9012038BDB4
:10237000FFF7A2FE50B15CB10DB90120F7E7294685
:10238000204600F097F8F2E70120F0E70120EEE7A1
:102390000120ECE7EC13002010B582B01D4B1B6848
:1023A00001934FF0000302238DF803301A4B1B6892
:1023B0003BB304461B684BB90120164B1A68019BBE
:1023C0005A404FF0000322D102B010BDFFF774FE57
:1023D000C8B1D4B10DF10300FFF77CFF0128ECD0A8
:1023E0009DF8031009B90120E7E7012914BF002176
:1023F0000121204600F0E4F8012814BF002001204C
:10240000DBE70120D9E70120D7E70120D5E7FFF777
:10241000B9FB00BF40000010EC13002010B582B0E3
:102420001D4B1B6801934FF0000302238DF803300E
:102430001A4B1B683BB304461B684BB90120164B73
:102440001A68019B5A404FF0000322D102B010BD20
:10245000FFF732FEC8B1D4B10DF10300FFF73AFF28
:102460000128ECD09DF8031009B90120E7E7012904
:1024700014BF00210121204600F0AAF8012814BF52
:1024800000200120DBE70120D9E70120D7E7012068
:10249000D5E7FFF777FB00BF40000010EC130020EA
:1024A000024B002018605860704700BFF0130020F6
:1024B000012070470120704708B50C4804F004FD66
:1024C0000B4B9A6942F000429A614CF2FA321A615F
:1024D00041F60401074805F01BF808B1012008BDCA
:1024E0000120FFF7E9FE0020F9E700BF840D010895
:1024F000002002400040070830B583B004460D4676
:10250000274B1B6801934FF00003264804F0DCFCC6
:10251000002C36D069462046FFF712FD012831D045
:10252000214B9D4202D0214B9D4234D1204B1D684E
:10253000E5B1009A1E490B681344083302F0070006
:102540001B1A0B60B3F5C05F16D21A4B996941F0A4
:10255000004199614CF2FA3119612146164828442C
:1025600004F046FF003818BF01200BE0FFF7A4FF7E
:102570000028DED0012005E0104804F0A5FC012071
:1025800000E00120064B1A68019B5A404FF00003FF
:1025900003D103B030BD0120F4E7FFF7F3FA00BF29
:1025A000400000109C0D01084218563424317182FD
:1025B000F01300200020024000400708B40D01087D
:1025C00008B50A460149FFF797FF08BD421856347F
:1025D00008B50A460149FFF78FFF08BD2431718213
:1025E000002860D010B50446304B1860021D5A60B8
:1025F0004FF47A73C0F8DC3500F5BC62012100F0BD
:102600006FFE01284ED004F1140001F063FB012895
:1026100048D004F1500000F0E5F8012842D004F160
:10262000340001F029FD01283CD00A2384F8C83980
:102630000B2384F8C9390C2384F8CA390D2384F894
:10264000CB39712384F8CC39722384F8CD397323C4
:1026500084F8CE39742384F8CF39F12384F8D03943
:10266000F22384F8D139F32384F8D239F42384F89F
:10267000D33905232372062363720723A372082329
:10268000E37275232373762363737723A37378230D
:10269000E373F5232374F6236374F723A374F823F9
:1026A000E374002010BD0120704700BFF813002024
:1026B00008B5024B186800F023FE08BDF81300208F
:1026C0000346054A106000201860044A136843F46A
:1026D00080031360704700BF00140020982400207E
:1026E0000346074A10600020186058609860D86060
:1026F0001861044A136843F008031360704700BF71
:102700000414002098240020044B1A6852F820304A
:102710000B4442F820300020704700BF0414002012
:1027200008B50121FFF7F0FF08BD0000044B1B684E
:1027300053F820208A42B8BF43F820100020704789
:102740000414002008B51E4B1B6813F0080F35D089
:102750001C4B1B685B68002B10DC1A4B1B681B684A
:10276000182B13DC174B1B689B68002B16DC154BD2
:102770001B68DB68002B19DC002008BD082000F076
:10278000A3F9104B1B6800225A60E6E7092000F00D
:102790009BF90C4B1B6800221A60E3E70A2000F04B
:1027A00093F9084B1B6800229A60E0E70E2000F0C6
:1027B0008BF9044B1B680020D860DEE70120DCE7C2
:1027C0009824002004140020054B1860421E0023AA
:1027D00002F8013F0133202BFAD103620020704739
:1027E000081400200D4B5860202303601823436019
:1027F00003238360034600F5B0610022DA601A61AA
:102800005A619A6183F820202C338B42F6D1044A16
:10281000136843F010031360002070470814002071
:10282000982400201C4B1B6813F0100F01D10120CD
:10283000704710B5EFF31084012383F31088174B12
:102840001A68136A03B31178013B136212F803C0CC
:1028500082F800C04FF0FF0C02F803C00F4B5A681B
:102860002C2301FB03F303F10C0111441A44D16042
:102870000023136153619361D36182F820300160BA
:1028800084F31088184610BD0120FFF749FF84F338
:1028900010880120F7E700BF9824002008140020CA
:1028A0000F4B5B680C33C31A0E4AA2FB0323C3F31E
:1028B0004713EFF3108C012282F3108802685AB19B
:1028C0000022026006490868016A4354013101622E
:1028D0008CF31088104670478CF3108801207047E5
:1028E00008140020A38B2EBA30B40A4B5C68224631
:1028F0000023D568854205D001332C32202BF8D136
:10290000012005E02C2202FB03440C340C60002063
:1029100030BC70470814002070B5054614460E46BA
:10292000002914BF14460024094B14BF0E461E464E
:1029300021460020FFF7FAFE172C28BF1724621C3F
:10294000314605F1140008F06DFA002070BD00BF9B
:10295000B81301080E2841D8DFE800F0443C282CC9
:1029600030343824080C1014181C20001E4B0B6047
:10297000002070471D4B0B60002070471C4B0B6004
:10298000002070471B4B0B60002070471A4B0B60F8
:1029900000207047194B0B6000207047184B0B60EC
:1029A00000207047144B0B6000207047154B0B60E4
:1029B00000207047144B0B6000207047134B0B60D6
:1029C00000207047124B0B6000207047114B0B60CA
:1029D00000207047104B0B60002070470F4B0B60BE
:1029E0000020704701207047EC0D0108100E01080F
:1029F0003C0E0108500E01087C0E0108A80E0108CB
:102A0000C40E0108E40E0108F80E0108100F0108B9
:102A1000240F0108400F0108580F0108680F010832
:102A200010B582B004461B4B1B6801934FF00003A6
:102A3000194B19688B68C3B169462046FFF78AFFB6
:102A4000012C22D0A31E0C2B16D8134B1B68009907
:102A5000986800F03DFF00200E4B1A68019B5A4019
:102A60004FF0000313D102B010BD08310B4801F044
:102A700029FA0128E0D1EFE7074B1B6822460849F5
:102A8000986800F07DFF0120E6E72046E4E7FFF7C5
:102A900079F800BF4000001010140020840F0108D6
:102AA000680F01080346064A10600020186058604D
:102AB0009860044A136843F020031360704700BF16
:102AC000101400209824002010B50E4B1B6813F042
:102AD000200F14D00C4B1B681A68411E22FA01F417
:102AE00014F0010402D00024204610BD4FF0010C68
:102AF0000CFA01F10A431A60FFF792FFF4E7012490
:102B0000F2E700BF982400201014002038B5134BC2
:102B10001B6813F0200F1FD0114B1B685C6814B1A9
:102B20000024204638BD421E012191401A680A4304
:102B30001A605860FFF774FF0546012808D0084B5B
:102B40001B680849986800F0C3FE01F07FF9E8E7C8
:102B500001F07CF92C46E4E70124E2E79824002008
:102B6000101400208C0F0108094B18600023C36665
:102B700003466C3000221A605A609A600C33984207
:102B8000F9D1044A136843F04003136000207047F2
:102B9000141400209824002070B584B005462C4BF6
:102BA0001B6803934FF00003002301930293294B0A
:102BB000186810F001003ED00C46274B1B685B687C
:102BC000002B39D0EFF31086012383F31088234BB9
:102BD0001A68D36E0133D366214B1B6801AA0C21FE
:102BE000186800F0D5F9012822D045F48050019BE7
:102BF00018801A4B1B68DA6E019B5A800199194B99
:102C00005A684A60184B1B685869824202D2DA68D7
:102C10000132DA604A685A618C60114B186802AB65
:102C20000C22006800F04AFA86F31088002003E0C6
:102C300086F3108800E00120054B1A68039B5A4078
:102C40004FF0000301D104B070BDFEF79BFF00BF41
:102C500040000010982400209C2400201414002020
:102C6000F8130020001000E028320020F0B585B0F5
:102C700004462D4B1B6803934FF000030023019380
:102C800002932A4B186810F0010040D00D461646FA
:102C9000274B1B685B68002B3AD0EFF310870123AA
:102CA00083F31088234B1A68D36E0133D366224B0B
:102CB0001B6801AA1021186800F06AF9012823D0C6
:102CC00044F40054019B1C801A4B1B68DA6E019B74
:102CD0005A800199194B5A684A60194B1B68586908
:102CE000824202D2DA680132DA604A685A618D6043
:102CF000CE60114B186802AB1022006800F0DEF9BC
:102D000087F31088002003E087F3108800E001209B
:102D1000054B1A68039B5A404FF0000301D105B0E0
:102D2000F0BDFEF72FFF00BF4000001098240020E8
:102D30009C24002014140020F8130020001000E050
:102D4000283200202DE9F04184B005461E462E4B66
:102D50001B6803934FF000030023019302932B4B56
:102D6000186810F0010042D088461746284B1B68AF
:102D70005B68002B3CD0EFF31084012383F31088B1
:102D8000244B1A68D36E0133D366234B1B6801AA08
:102D90001421186800F0FCF8012825D045F44055AE
:102DA000019B1D801B4B1B68DA6E019B5A800199A9
:102DB0001A4B5A684A601A4B1B685869824202D201
:102DC000DA680132DA604A685A61C1F80880CF6077
:102DD0000E61114B186802AB1422006800F06EF906
:102DE00084F31088002003E084F3108800E00120C1
:102DF000054B1A68039B5A404FF0000302D104B000
:102E0000BDE8F081FEF7BEFE4000001098240020CF
:102E10009C24002014140020F8130020001000E06F
:102E200028320020204B1B6813F0400F39D02DE9C9
:102E3000F0410E46EFF31088012383F310881B4BFB
:102E40001D68EB6E0133EB66C5F87480184B1B6888
:102E50001C6A013404EB440705EB8707402816D8A9
:102E6000033020F0030104EB440305EB83035960B6
:102E70001D460023AB600F4B1B683A46186800F0F4
:102E800087F801280AD037600020BDE8F081A0F162
:102E900040010220FFF74AFC4020E1E788F3108858
:102EA000F3E70120704700BF98240020141400208D
:102EB0001C140020F813002070B582B00446114B9A
:102EC0001B6801934FF00003002600960E4B1B6811
:102ED0005D6F0E4B18686B4662682168006800F0F1
:102EE000EDF826606660A66085F31088054B1A68C9
:102EF000019B5A404FF0000302D1304602B070BD32
:102F0000FEF740FE4000001014140020F8130020CB
:102F100038B5044695000068A3682A46184407F0AF
:102F200081FFA3682B44A360002038BD43688168FB
:102F300082698A1A93420CD2826AD25A120B0232E6
:102F400003EB8203B3FBF1F201FB12334360002079
:102F500070470023FAE700008446C1600020CCF8E7
:102F60000000CCF80400CCF80830CCF81430CCF8D1
:102F70002820CCF81800CCF81C00CCF82000034A1C
:102F8000136843F080031360704700BF982400204B
:102F90002DE9F04104460D4616468768C368012BAB
:102FA00015D003684268934277D3F81A111F014481
:102FB0008D425BD8A8425DD9A26A1A4432602B4484
:102FC000B3FBF7F207FB1233E36100206FE0026806
:102FD00043689A4224D3A7EB020888450BD9836A39
:102FE0001344336003680B44B3FBF7F207FB12335F
:102FF000C36100205BE02046FFF798FF6368043B55
:103000009D42F8D8C4F8188000202060A36A33607D
:1030100023682B44B3FBF7F207FB1233E36146E06E
:10302000043B9B1A994218D9BF1A8F4208D22046F6
:10303000FFF77CFF6368002BF9D0A76100232360B2
:103040002046FFF773FF62682168131F5B1A9D42D9
:10305000F6D812B9A36A0B443360A36A22681344FA
:10306000336023682B44E361002020E000233360B9
:1030700001201CE0AA420CD3A061A26A3260A269BE
:1030800013442B44B3FBF7F207FB1233E361002038
:103090000DE000233360012009E0043AD21A8A428D
:1030A00007D3826A1A4432600B44C3610020BDE832
:1030B000F081002333600120F9E70000044909682A
:1030C000C9680162C16901601A600020704700BFD1
:1030D0002832002003460020186058609A685A6120
:1030E0009861D86170470000054B1860FD230360AC
:1030F000044A136843F4807313600020704700BFD4
:10310000181400209824002008B5124B124AC3F866
:10311000B02F4FF0E023D3F8FC2D42F08072C3F8BB
:10312000FC2DD3F8FC3D63B10A4B1B6813F0007F04
:103130000BD1084B00225A601A6842F001021A6053
:1031400008BD0420FFF7E2FCFAE70520FFF7DEFCEC
:10315000F6E700BF001000E055CEACC500B589B061
:10316000DFF844C0DCF800C0CDF81CC04FF0000C04
:103170000491059206930A9B02934FF0004301933A
:1031800004AB0093032302460021F22000F0D4F8A0
:10319000054B1A68079B5A404FF0000302D109B053
:1031A0005DF804FBFEF7EEFC4000001090B108B59E
:1031B000844669B1436813448068984238BFCCF8AC
:1031C0000830CCF804303820FFF750FD002008BD4F
:1031D000E920F9E70120704758B108B539B14368D3
:1031E0009B1A43603920FFF741FD002008BDEA200B
:1031F000F9E701207047000003460A4A10600020EA
:10320000186058609860D860186158619861D861FA
:103210004FF0FF321A625862034A136843F4805336
:10322000136070471C1400209824002008B5322435
:1032300000F034FE204602F04BFAF9E710B50C46D8
:1032400002F00CFC2060002010BD0000034628B1F5
:10325000034A1060002018605860704701207047D2
:103260002014002030B585B0154B1B681A6832B1A8
:10327000134B1C68636853B1002005B030BD009348
:103280004FF4B84311460F48FFF768FFF0E70C4DC5
:103290002B1D02930C4B01930123009300234FF449
:1032A00080620A490A4801F07DFF60602B685B6814
:1032B0000020002BE1D10620FFF728FC0120DCE7ED
:1032C00020140020B40F010888140020C00F01084A
:1032D0002D320008014B1B6818687047201400202D
:1032E00008B584461046CCF8002023F003032C3B9D
:1032F0002C32FFF731FE012814BF0020012008BD49
:1033000008B50068FFF7E6FE002008BD10B551B112
:103310000B786BB10B460022013213F8014F24B138
:10332000802AF9D101E003490022FFF7F5FA10BD28
:103330000022FAE7B81301082DE9F04F85B0814665
:1033400017461E46DDF83880DDF840B0594B1B6843
:1033500003934FF0000300230293EFF3108A01233D
:1033600083F31088002900F090800D4601A8FFF734
:1033700059FA00287CD1019B1D6056B1A8F10403C5
:10338000019C04EB860153F8042F44F8042F8C426F
:10339000F9D1019B1A690F990A431A61CBF80030E1
:1033A0008AF3108817B13B78002B79D1424B18680B
:1033B00010F001005FD0414B1B68586800285AD0BC
:1033C000F71CBF0002A93846FFF72CFD0446002871
:1033D0006BD1029B19685A68083A394B03EA822379
:1033E00043EA09030B80029B1B68364A1268D26EBF
:1033F0005A80029A1368344949685960334B1B68F4
:10340000116848685969884202D2D9680131D96087
:1034100011684968596193680833936023F0030386
:103420001268D550029A93680433936096B1A8F15C
:103430000408A7F10C004044029A58F8041F93684E
:1034400023F003031268D150029A93680433936007
:103450008045F1D1184B186810F001000BD0174BC4
:103460001B68586838B10298FFF726FD204602E035
:103470008AF3108801200F4B1A68039B5A404FF0C3
:10348000000314D105B0BDE8F08F01A8FFF7CAF919
:10349000012802D0019B1D686FE78AF31088EAE7D4
:1034A00039460198FFF732FF80E70020E3E7FEF797
:1034B00069FB00BF40000010982400209C240020DD
:1034C00000F0FF0F14140020001000E0283200204C
:1034D00000B587B00593089B02930023019305ABC9
:1034E00000930123FFF728FF07B05DF804FB0000FD
:1034F00010B584B0094C246803944FF0000402AC6A
:103500000094FFF7E5FF054B1A68039B5A404FF004
:10351000000301D104B010BDFEF734FB40000010E1
:10352000F0B583B006460D46164B1B6801934FF06D
:103530000003EFF31087012383F310886946FFF738
:10354000D3F9012810D029460098FFF7DFFE044682
:1035500087F310880B4B1A68019B5A404FF0000309
:103560000DD1204603B0F0BD04466846FFF75AF976
:1035700010B9009B1E60E6E787F31088EAE7FEF7C4
:1035800001FB00BF4000001070B582B0384B1B68D3
:1035900001934FF0000300230093364B1B6813F098
:1035A000010F06D006460D461446334B1B685B6878
:1035B0004BB92F4B1A68019B5A404FF0000355D16D
:1035C000002002B070BD694602F10C00FFF72AFC32
:1035D0000028EED1009B19685A68083A274B03EA85
:1035E000822343F003030B80009B1B68244A12686C
:1035F000D26E5A80009A1368224949685960224B5A
:103600001B68116848685969884202D2D96801313B
:10361000D96011684968596193680833936023F051
:1036200003031268D6500098836804338360E21C59
:1036300092082946FFF76CFC009B9A6859689142F2
:1036400006D01B6800219954009A93680133936057
:10365000084B1B6813F0010FABD0074B1B685B686E
:10366000002BA6D00098FFF727FCA2E7FEF78AFA06
:1036700040000010982400209C24002000F0FF0F40
:1036800014140020001000E0283200202DE9F04141
:1036900005460E461746014651F8148B037DA3B12B
:1036A0000B460022013213F8014F0CB1802AF9D1E8
:1036B0004046FFF769FF3A4641463046FFF7D6FAE3
:1036C0002846FFF7EDF8BDE8F0810022F0E70000A2
:1036D00070B582B0054608461446124B1B6801932C
:1036E0004FF00003EFF31086012383F3108869463F
:1036F000FFF7FAF801280FD0224629460098FFF775
:10370000C5FF86F31088074B1A68019B5A404FF09B
:10371000000304D102B070BD86F31088F3E7FEF712
:1037200031FA00BF400000102DE9F04F83B08B4606
:1037300016461C460C9D554B1B6801934FF0000329
:10374000002300938146002800F08180504B1868C8
:1037500010F0010A00F08B804E4B1B685B68002B59
:1037600000F0878006EB840069460C30FFF75AFBB7
:10377000804600287DD1009B19685A68083A464B5C
:1037800003EA822304F1910213430B80009B1B6820
:10379000424A1268D26E5A80009A136840494968BA
:1037A0005960404B1B68116848685969884202D2C9
:1037B000D9680131D9601168496859619368083343
:1037C000936023F00303126842F80390009A936811
:1037D000043393608CB14346009A906820F0030054
:1037E00011682A68171D2F6012680A50009A9068A5
:1037F0000430906001339C42EED1009843688268A7
:103800009B1AB34238BF03F1FF36F21C92085946A7
:10381000FFF77EFB009B9A685968914206D01B68AF
:1038200000219954009A936801339360184B1868EB
:1038300010F0010A1DD0174B1B68D3F804A0BAF191
:10384000000F16D00098FFF737FBC24611E0164B69
:1038500019680B6823B1144B1B68D3F8009075E707
:10386000124800F02FFB82460128F4D101E04FF00E
:10387000010A064B1A68019B5A404FF0000303D11E
:10388000504603B0BDE8F08FFEF77CF94000001011
:10389000982400209C24002000F0FF0F1414002026
:1038A000001000E02832002088240020C80F010802
:1038B0000346054A1060002018605860034A1368E8
:1038C00043F40043136070478824002098240020AC
:1038D0000F4B1B6813F4004F18D010B582B051B1D4
:1038E0000B788BB10B460022013213F8014F24B143
:1038F000802AF9D101E00749002200230093013218
:10390000FFF712FF02B010BD0022F6E7012070475A
:1039100098240020B8130108174B1B6813F4004FBC
:1039200027D010B582B0B9B10C78FCB100239C4609
:1039300007E00CF1010C11F80C4084B1BCF17F0FD1
:103940000DD8252CF5D10CF1010C11F80C4034B137
:10395000252C18BF0133ECE7084900239C46009250
:103960000CF10102FFF7E0FE02B010BD00239C46FF
:10397000F5E70120704700BF98240020B813010824
:103980000EB400B582B003990F4B1B6801934FF042
:1039900000030E4B1B6813F4004F0CD101200A4B9F
:1039A0001A68019B5A404FF000030AD102B05DF83B
:1039B00004EB03B0704704AB00936A46FFF7ACFF1B
:1039C000EDE7FEF7DFF800BF40000010982400206C
:1039D000084B1860002303651A4640F83320013372
:1039E0000A2BFAD1044A136843F480331360002091
:1039F000704700BF8C2400209824002030B583B08D
:103A00001C4B1B6801934FF000030023009360B32D
:103A10000446EFF31085012383F31088164B1B68CF
:103A20001B6D092B1AD86946FFF708FC50B9124BD9
:103A30001A68136D02EBC30142F8334000984860E6
:103A40000133136585F3108800200A4B1A68019B27
:103A50005A404FF000030AD103B030BD0320FEF7F7
:103A60005FFE85F310880120EFE70120EDE7FEF708
:103A700089F800BF400000108C240020F0B583B00E
:103A80001F4B1B6801934FF0000300230093EFF3DB
:103A90001086012383F310881A4B1C68226DEAB14B
:103AA0005B689A4298BF0023164A5360DF0004EB1C
:103AB000C305694654F83300FFF7C0FBD0B9009B3B
:103AC0006A689A4288BF6B606A68E159EB20FFF729
:103AD000CDF80C4B5B6801330A4A536086F31088BB
:103AE000074B1A68019B5A404FF0000306D1002093
:103AF00003B0F0BD034B5B680133EDE7FEF742F81E
:103B0000400000108C24002010B584B002460C4602
:103B10000F4B1B6803934FF0000302AB009300238D
:103B20001946ED20FFF7D4FC012806D0029B1A6944
:103B300042F000521A6123600020054B1A68039B73
:103B40005A404FF0000301D104B010BDFEF71AF83F
:103B50004000001010B584B0034614460F4A1268A6
:103B600003924FF0000202AA00920A460021EC20C4
:103B7000FFF7AEFC012806D0029B1A6942F0805282
:103B80001A6123600020054B1A68039B5A404FF0CE
:103B9000000301D104B010BDFDF7F4FF4000001098
:103BA00008B50A4641600146EE20FFF75FF80020A5
:103BB00008BD0000044B1860044A136843F48023D6
:103BC00013600020704700BF942400209824002038
:103BD00010B53F4B1C680CB1002010BDFFF794FAE4
:103BE0003B4800F10803436000238360C360036126
:103BF0001C30FEF7E9FD0128EFD0354B586800F581
:103C00005860FEF75DFD0128E7D0314B586800F69B
:103C10001450FFF7DDFE0128DFD02D4B58683C30F3
:103C2000FEF7DEFC0128D8D0294B586800F6685012
:103C3000FEF756FD0128D0D0254B586800F67C5081
:103C4000FFF752FA0128C8D0214B586800F614201B
:103C5000FFF7B0FF0128C0D01D4B586800F6544054
:103C6000FEF782FF0128B8D0194B586800F6CC4007
:103C7000FFF71EFE0128B0D0154B586800F6D4405F
:103C8000FEF710FF0128A8D0114B586800F54E60D0
:103C9000FFF7B2FA0128A0D00D4B586800F551602B
:103CA00000F0AEF9012898D0094B586800F608508A
:103CB000FFF7CCFA012890D0054B5A684FF0FF313E
:103CC000D1601A6842F001021A60204685E700BF01
:103CD000982400200146F0B1104B03600E2383802E
:103CE00041F6A123C3800E4801F1170301F11F0C17
:103CF00010F8012F03F8012F0AB16345F8D1002015
:103D0000888202238B750123CB7540F20133CB608F
:103D10000861886070470120704700BF004653501B
:103D2000DF0F010810B582B00446404B1B680193B9
:103D30004FF00003FFF74CFF01280AD0FFF792FA7B
:103D4000012806D0022C0DD0012C12D0201E18BF45
:103D50000120364B1A68019B5A404FF0000363D193
:103D600002B010BD324B5B685B68002BFDD00020B9
:103D7000EFE72F4B5B685B68012B53D02D4B1B6823
:103D80009A6812B92C4A12689A60EFF310840123E2
:103D900083F31088FEF78CFC0023009369460C2007
:103DA000FFF740F8002831D1009B19685A68083A9B
:103DB000224B03EA822343F001030B80009B1B6824
:103DC0001F4A1268D26E5A80009A13681D494968CA
:103DD0005960184B1B68116848685969884202D2BB
:103DE000D9680131D960116849685961936808330D
:103DF000936023F003031268134909680968D150DE
:103E00000098836804338360FFF756F8084A5168C6
:103E10000B6801330B60536801225A6084F31088E9
:103E2000002096E7002094E7FDF7ACFE400000106C
:103E300098240020283200208000001000F0FF0F9E
:103E400014140020001000E024320020084B5B68AE
:103E50005B6853B1EFF31083012282F31088044AA8
:103E600052680021516083F310880020704700BF22
:103E700098240020084B5B6843B148B151B13C33F2
:103E8000036040F6D8130B60002070470120704794
:103E900001207047012070479824002008B5084B86
:103EA0001B6813F0010F03D0054B5B685B680BB90F
:103EB000002008BDFEF746FCFFF7E0FDF8E700BF75
:103EC00098240020F0B585B006460F46454B1B6888
:103ED00003934FF000030023029301A8FEF7A2FC16
:103EE00001281AD033780BB33246002301331D4624
:103EF00012F8014F0CB1182BF8D12A46314601981F
:103F0000FEF70AFD019B3B60374B186810F001007B
:103F100003D0364B1B68586850B9324B1A68039B64
:103F20005A404FF000035BD105B0F0BD0025E4E737
:103F300002A905F10C00FEF775FF044600284DD1DB
:103F4000029B19685A68083A294B03EA822343F016
:103F500003030B80029B1B68264A1268D26E5A80AC
:103F6000029A1368244949685960244B1B681168F8
:103F700048685969884202D2D9680131D96011680C
:103F80004968596193680833936023F0030312680A
:103F90000199D1500298836804338360EA1C920827
:103FA0003146FEF7B5FF029B9A685968914206D0E8
:103FB0001B6800219954029A9368013393600A4B5D
:103FC000186810F00100A8D0084B1B68586800283A
:103FD000A3D00298FEF770FF20469EE700209CE7E2
:103FE000FDF7D0FD40000010982400209C24002004
:103FF00000F0FF0F14140020001000E02832002011
:10400000054B186002230360044A136843F48013CD
:1040100013600020704700BF243200209824002045
:1040200038B50446114B186810F001001CD0104B35
:104030001B685A681AB90F4B1B681C6015E00122F7
:104040009A60EFF3108582F310880A4B1B681C609E
:104050000A4621463720FEF709FE054B1B6802225F
:104060009A6085F3108800E0012038BD9824002074
:104070009C2400202432002003460A4A10600020BD
:10408000986058604FF47A7119619861D860012185
:10409000196013685861044A136843F400131360ED
:1040A000704700BF283200209824002000F1080348
:1040B00043604FF0FF328260C360036100230360FE
:1040C000704700230361704743684B609A688A60B9
:1040D000516099600861036801330360704730B430
:1040E0000D68B5F1FF3F11D000F108031C465B6875
:1040F0001A68AA42FAD963684B6099608C60616063
:10410000086103680133036030BC70470469F2E75B
:104110000369416882688A60416851605A688242D6
:1041200004BF82685A60002202611A68013A1A606C
:104130001868704710B5044602F08CF9A46B02F0C1
:10414000B9F9B4FA84F0400910BD70B504461546BB
:10415000866B026C5AB903681BB100200136A66356
:1041600070BD806801F0AAFC0023A360F6E76DB97A
:10417000406806F057FE6368226C13446360A268CF
:10418000934219D3236863602846E7E7C06806F0C6
:1041900049FE226C5142E3689B1AE3602268934215
:1041A00002D2A3680B44E360022D01D00020D5E7C2
:1041B00026B1013E0020D1E72846CFE70020CDE719
:1041C0000346026C6AB110B50846D9681144D9603B
:1041D0009C68A14224BF1968D960D96806F022FE04
:1041E00010BD704770B5054602F034F995F84540AA
:1041F00064B2002C0FDD05F1240602E0013C64B23C
:104200004CB16B6A3BB1304601F068FB0028F5D039
:1042100001F01CFCF2E7FF2385F8453002F04AF973
:1042200002F018F995F8444064B2002C0FDD05F156
:10423000100602E0013C64B24CB12B693BB1304640
:1042400001F04CFB0028F5D001F000FCF2E7FF2361
:1042500085F8443002F02EF970BD000038B50D46E7
:104260000446D0B102F0F6F82268216CE36B01FB42
:1042700003F3D018A0600020A06362605B1A1A44A8
:10428000E260FF2384F8443084F8453035BB23696D
:104290009BB902F00FF9012038BD154B01221A60BD
:1042A000144A5A60144A9A6040F20D12DA60134AB6
:1042B000536843F000435360D4E704F1100001F069
:1042C0000DFB0028E5D04FF0E0234FF08052C3F8FB
:1042D000042DBFF34F8FBFF36F8FDAE704F11000A7
:1042E000FFF7E4FE04F12400FFF7E0FED1E700BF92
:1042F00030000010EC0F0108FC0F010800ED00E099
:1043000070B506461D46049C002908BF224622605F
:10431000E063216401212046FFF7A0FF84F84C50A0
:10432000042D0AD8DFE805F00311090A1800334606
:104330000D4A21461120FFF7DBF870BD00230A4A21
:1043400021461220FFF7D4F8F7E70023064A21465A
:104350001320FFF7CDF8F0E70023034A214617208A
:10436000FFF7C6F8E9E700BFB813010830B585B01C
:104370001C469DF82030844670B9464D01202860C7
:10438000454868604548A8604FF4A470E860444D13
:10439000686840F000406860002C31D0002A67D087
:1043A00071B93C48012505603B4D45603B4D85603A
:1043B0004FF4A875C5603A4D686840F000406860E9
:1043C00050200390039D85420ED0324D012028607D
:1043D000314868603148A86040F25910E8603048C0
:1043E000456845F0004545600398CCB1012084F84C
:1043F000460000946046FFF783FF204605B030BDBD
:10440000244801250560244D4560244D85604FF406
:10441000A675C560224D686840F000406860BDE741
:10442000042BEAD801A252F823F000BF414400084F
:1044300059440008FB4300084D4400086544000847
:10444000624600214120FEF711FCD6E7002211460A
:104450004220FEF70BFCD0E7002211464320FEF776
:1044600005FCCAE7002211464720FEF7FFFBC4E720
:104470000029A5D0074801250560074D4560074D77
:10448000856040F25115C560054D686840F00040F8
:10449000686095E730000010EC0F0108FC0F010880
:1044A00000ED00E02DE9F04786B0894601921D46F7
:1044B000A74B1B6805934FF00003044608B3B9F1FE
:1044C000000F2ED0022D3FD001F0E8FA80B9019BF9
:1044D00073B1A04B01221A609F4A5A609F4A9A60AA
:1044E00040F21132DA609E4A536843F00043536051
:1044F000002D0CBF4FF056084FF0C20800273E4673
:10450000CDE0944B01221A60934A5A60934A9A6014
:104510004FF44372DA60924A536843F000435360A9
:10452000CDE7236C002BCDD08A4B01221A608A4A3A
:104530005A608A4A9A6040F20D32DA60884A5368BB
:1045400043F000435360BDE7E36B012BBCD0814BCC
:1045500001221A60804A5A60804A9A6040F20E3204
:10456000DA607F4A536843F000435360ACE794F845
:104570004C30042B0DD8DFE803F003352E2E3A0023
:10458000002D14BFC0205020A26B01322146FEF73F
:104590006DFB2A4649462046FFF7D7FD636A5BBBA1
:1045A00048B14FF0E0234FF08052C3F8042DBFF321
:1045B0004F8FBFF36F8F01F07DFF0120644B1A68AE
:1045C000059B5A404FF0000340F0088106B0BDE85B
:1045D000F087C020D8E7A26B013221465120FEF7B8
:1045E00045FBD6E721465220FEF7D6FAD1E7214611
:1045F000C520FEF7D1FACCE704F1240001F06EF9F2
:104600000028D8D04FF0E0234FF08052C3F8042D9B
:10461000BFF34F8FBFF36F8FCDE701F04BFF94F8DF
:104620004C30042B00F2C380DFE803F003140D0DBF
:104630001400002DA26B214614BFC1205320FEF7A9
:1046400015FB0020BAE7A26B21465420FEF70EFBB3
:104650000020B3E721465520FEF79EFA0020ADE783
:1046600003A801F08FF929E0A26B21464046FEF72E
:10467000FDFA019904F1100001F0D4F82046FFF78B
:10468000B1FD00F097FF48B94FF0E0234FF08052A2
:10469000C3F8042DBFF34F8FBFF36F8F012701F0D5
:1046A000D9FEA26BE36B9A42FFF461AF022D00F0DA
:1046B0008280019B002BB0D0002FD1D001F0FAFEF8
:1046C00000F092FE01F0C6FE94F8440040B2B0F152
:1046D000FF3F08BF84F8446094F8450040B2B0F151
:1046E000FF3F08BF84F8456001F0E4FE01A903A87C
:1046F00001F052F9B0BB01F0ADFED4F838A0E76B81
:1047000001F0D8FEBA451CD194F84C30042BB0D837
:1047100001A252F823F000BF69460008394700089B
:104720002D4700082D47000839470008A26B214695
:104730005720FEF79BFA9CE721465820FEF72CFAFB
:1047400097E72046FFF74EFD00F034FFA6E700BFD5
:104750004000001030000010EC0F0108FC0F0108B1
:1047600000ED00E02046FFF73DFD00F023FF94F848
:104770004C30042B1DD8DFE803F003140D0D14009A
:10478000002DA26B214614BFC1205320FEF76EFA04
:10479000002013E7A26B21465420FEF767FA0020A1
:1047A0000CE721465520FEF7F7F9002006E7002028
:1047B00004E7002002E794F84C30042B3FF6E9AE02
:1047C00001A252F823F000BFD3450008E5450008D8
:1047D000D7450008D7450008EF450008FDF7D2F996
:1047E0002DE9F8430F4691461D46044638B3002F85
:1047F00035D0022D46D001F097FFEFF311884FF02E
:10480000100383F31188BFF36F8FBFF34F8FA26B39
:10481000E36B9A4249D3022D00F0A78094F84C3004
:10482000002B00F09280023BDBB2012B00F29B8058
:10483000A26B21465D20FEF719FA00205FE0514B84
:1048400001221A60504A5A60504A9A604FF47872B6
:10485000DA604F4A536843F000435360C7E7236C64
:10486000002BC6D0474B01221A60474A5A60474A7C
:104870009A6040F2E132DA60454A536843F00043FF
:104880005360B6E7E36B012BB5D03E4B01221A60B3
:104890003D4A5A603D4A9A6040F2E232DA603C4A50
:1048A000536843F000435360A5E794F8456076B23F
:1048B000A36B94F84C3053B1023BDBB2012B0FD801
:1048C000A26B013221465A20FEF7D0F908E0002DF4
:1048D00014BFC3205920A26B01322146FEF7C6F94E
:1048E0002A4639462046FFF730FCB6F1FF3F0CD090
:1048F0007F2E1AD0013676B284F84560012088F305
:104900001188BDE8F883C320E5E7636A0BB901208D
:10491000F5E704F1240000F0E1FF00B3B9F1000F66
:104920001FD00120C9F80000E9E7164B01221A60E8
:10493000154A5A60154A9A6040F26B42DA60144A8E
:10494000536843F000435360D4E7002DA26B214627
:1049500014BFC4205C20FEF789F90020CFE70120B6
:10496000CDE70120CBE70020C9E794F8456076B297
:10497000A36B94F84C30002BC5D0023BDBB2012B6B
:104980009ED9ADE730000010EC0F0108FC0F0108C4
:1049900000ED00E02DE9F8438846914604460028E2
:1049A00035D0236C73B1594B01221A60584A5A60B2
:1049B000584A9A6040F28F42DA60574A536843F08F
:1049C000004353602368002B31D001F0ADFEEFF3BC
:1049D00011854FF0100383F31188BFF36F8FBFF37E
:1049E0004F8FA76BE36BBB4270D994F8456076B2EA
:1049F00094F84C30002B2DD0023BDBB2012B34D885
:104A0000A26B013221465A20FEF730F92DE03F4BD0
:104A100001221A603E4A5A603E4A9A6040F28B4236
:104A2000DA603D4A536843F000435360B9E7A36836
:104A3000002BCAD0354B01221A60354A5A60354ADC
:104A40009A6040F29442DA60334A536843F000437C
:104A50005360BAE7B9F1000FA26B02F101022146DF
:104A600014BFC3205920FEF701F90137A763B6F13F
:104A7000FF3F0AD07F2E19D0013676B284F8456008
:104A8000012085F31188BDE8F883636A0BB9012022
:104A9000F7E704F1240000F021FF00282FD0B8F13F
:104AA000000F2ED00120C8F80000EAE7174B0122C2
:104AB0001A60174A5A60174A9A6040F21352DA6035
:104AC000154A536843F000435360D5E794F84C30DF
:104AD00053B1023BDBB2012B15D8A26B21465D20FE
:104AE000FEF7C4F80020CCE7B9F1000FA26B214615
:104AF00014BFC4205C20FEF7B9F80020C1E70120F4
:104B0000BFE70120BDE70020BBE700BF3000001079
:104B1000EC0F0108FC0F010800ED00E008B50022D1
:104B2000FFF738FF08BD00002DE9F04186B0884648
:104B30000192AB4B1B6805934FF000030446C8B1CC
:104B4000B8F1000F26D000F0A9FF80B9019B73B126
:104B5000A44B01221A60A44A5A60A44A9A604FF4F6
:104B6000A762DA60A24A536843F00043536000270B
:104B70003E46DBE09B4B01221A609B4A5A609B4AEF
:104B80009A6040F22F52DA60994A536843F000432A
:104B90005360D5E7236C002BD5D0924B01221A60CD
:104BA000914A5A60914A9A6040F23352DA60904AD0
:104BB000536843F000435360C5E741462046FFF782
:104BC000FFFA94F84C30042B0BD8DFE803F00324F1
:104BD0001C1C2A00A36B013B019A21466020FEF7B2
:104BE000B1F8013DA56323690BBB01F063FC012013
:104BF0007B4B1A68059B5A404FF0000340F00C8134
:104C000006B0BDE8F081A36B013B019A214661200B
:104C1000FEF798F8E5E7019A21466220FEF726F8AC
:104C2000DFE7019A2146C720FEF720F8D9E704F113
:104C3000100000F053FE0028D7D04FF0E0234FF0D3
:104C40008052C3F8042DBFF34F8FBFF36F8FCCE7B3
:104C500001F030FC94F84C30042B00F2D980DFE8EE
:104C600003F003130B0B1A00A36B019A2146632078
:104C7000FEF768F80020BBE7A36B019A2146642089
:104C8000FEF760F80020B3E7019A21466520FDF7A2
:104C9000EDFF0020ACE7019A2146C820FDF7E6FFB2
:104CA0000020A5E703A800F06DFE4AE0A36B019A7F
:104CB00021466620FEF746F8019904F1240000F031
:104CC000B1FD2046FFF78EFA00F074FC68BB4FF090
:104CD000E0234FF08052C3F8042DBFF34F8FBFF392
:104CE0006F8F22E0A36B019A21466720FEF72AF816
:104CF000E2E7019A21466820FDF7B8FFDCE7019A58
:104D00002146F620FDF7B2FFD6E72046FFF76AFA04
:104D100000F050FC09E02046FFF764FA00F04AFC7E
:104D20002046FFF707FA002840D1012701F092FB47
:104D3000A56B002D7FF441AF019B002B88D0002F85
:104D4000B0D001F0B7FB00F04FFB01F083FB94F80B
:104D500044305BB2B3F1FF3F08BF84F8446094F87D
:104D600045305BB2B3F1FF3F08BF84F8456001F006
:104D7000A1FB01A903A800F00FFE0028CBD120461B
:104D8000FFF7D8F90028C0D094F84C30042B93D802
:104D900001A252F823F000BFAD4C0008F34C00080C
:104DA000E54C0008E54C0008FF4C000894F84C3036
:104DB000042B2FD8DFE803F0031E0B0B2500A36B99
:104DC000019A21466320FDF7BDFF002010E7A36B89
:104DD000019A21466420FDF7B5FF002008E700BFD7
:104DE0004000001030000010EC0F0108FC0F01081B
:104DF00000ED00E0019A21466520FDF737FF002015
:104E0000F6E6019A2146C820FDF730FF0020EFE6C4
:104E10000020EDE60020EBE6FCF7B4FE10B5002321
:104E2000084C54F833201AB10133082BF9D110BDC6
:104E3000044A42F8331002EBC3025060FEF770FBE5
:104E4000F5E700BF2C32002070B504460D4616462B
:104E500001F000FB94F844305BB2B3F1FF3F04BFB4
:104E6000002384F8443094F845305BB2B3F1FF3F3F
:104E700004BF002384F8453001F01CFBA36B1BB179
:104E80002046FFF7AFF970BD3246294604F12400F1
:104E900000F0F0FCF4E70000074B9B6A1B6823B9A5
:104EA000054B4FF0FF32DA627047034B9A6AD268C3
:104EB0001268DA62704700BF6C3200202DE9F047BB
:104EC000064689461F46DDF824800A9C95002A463E
:104ED000A521206B05F0EDFE043D236B1D4425F05C
:104EE00007056564B9F1000F39D009F1FF3C04F101
:104EF000330E09F10F011CF8012F0EF8012F0AB132
:104F00008C45F8D1002384F84330089B062B28BF3A
:104F100006239946E36223654FF0000AC4F854A0C3
:104F2000201DFFF7CEF804F11800FFF7CAF824613E
:104F3000C9F10703A3616462C4F858A0C4F85CA077
:104F400084F860A03A463146284601F059FA2060BC
:104F5000B8F1000F01D0C8F80040BDE8F087002389
:104F600084F83430D1E70000F8B5044601F072FA55
:104F70003D4B1A6B01321A635B6B002B46D03A4BE8
:104F8000D3F804313BB9384B5B6BDA6AE36A9A4277
:104F90009CBF354B5C63344AD2F808310133C2F808
:104FA0000831A364E36A04F1340221461020FEF7BD
:104FB0009FFA002853D021463020FDF7EDFDE36A2B
:104FC000294DD5F80C1101229A400A43C5F80C214D
:104FD00005F1380003EB8303211D00EB8300FFF78D
:104FE00073F801F067FAD5F8043173B16B6BDA6AC4
:104FF000E36A9A4209D24FF0E0234FF08052C3F89F
:10500000042DBFF34F8FBFF36F8FF8BD164B5C635A
:105010001B6B012BBFD1144E06F13805C436284650
:10502000FFF744F81435B542F9D10F4D05F1C40727
:105030003846FFF73BF805F1D8063046FFF736F85B
:1050400005F11400FFF732F805F1EC00FFF72EF838
:105050002846FFF72BF8AF62C5F800619BE72046B2
:10506000FEF7CCFCA7E700BF6C32002010B5044669
:1050700090F861309BB1012B18D0022B0ED00D4B54
:1050800001221A600C4A5A600C4A9A6040F68A72F1
:10509000DA600B4A536843F00043536010BD006B65
:1050A00001F050FC204601F04DFCF7E701F04AFC0E
:1050B000F4E700BF30000010EC0F01083C100108BD
:1050C00000ED00E070B504460D461C4BD3F81061AE
:1050D000586B0430FFF71CF850B9184B596BD3F8D4
:1050E0000C21C86A0121814022EA0102C3F80C2187
:1050F000B4F1FF3F0DD03444104B5B6B5C60A642B3
:105100000FD90E4BD3F80001596B0431FEF7E7FFBE
:1051100070BD002DEFD00948416B0431FEF7D4FF7C
:10512000F6E7064DA86A696B0431FEF7D8FFEB6A13
:10513000A34284BF2B46DC62EAE700BF6C3200204A
:1051400080B5174C4FF0E0274FF0805607E0C7F8C6
:10515000046DBFF34F8FBFF36F8F01F0B3FED4F830
:105160001431C3B101F076F9D4F8F830DD68281DA8
:10517000FEF7CEFF236B013B2363D4F81431013BD0
:10518000C4F8143101F096F92846FFF76FFFD4F800
:105190001431002BE6D1A36B012BD8D8DDE700BF7B
:1051A0006C320020F0B589B00F9E109C3B4D2D68ED
:1051B00007954FF00005002E29D0002C37D064252C
:1051C0000695069D642D62D0354D01272F60354F21
:1051D0006F60354FAF6040F25127EF60334F7D680D
:1051E00045F000457D60069D002E44D026630225D3
:1051F00084F8615000250395029405AD01950E9D3C
:105200000095FFF75BFE2046FFF7AEFE35E0244D2C
:1052100001272F60234F6F60234FAF604FF4127749
:10522000EF60224F7D6845F000457D60C5E71C4B6F
:1052300001221A601B4A5A601B4A9A6040F24922B6
:10524000DA601A4A536843F00043536064230693BC
:10525000069B642B1DD0124B01221A60114A5A6022
:10526000114A9A6040F25122DA60104A536843F0C2
:1052700000435360069B002305930598074B1A686B
:10528000079B5A404FF0000305D109B0F0BD069DC1
:10529000AAE7069BEFE7FCF775FC00BF4000001093
:1052A00030000010EC0F01083C10010800ED00E098
:1052B0002DE9F04385B00746884614461E46900007
:1052C00001F0A0FA08B38146642001F09BFA05467C
:1052D000A8B1C0F83090002380F8613003930290A9
:1052E0000D9B01930C9B0093334622464146384662
:1052F000FFF7E4FD2846FFF737FE012007E04846A8
:1053000001F020FB4FF0FF3001E04FF0FF3005B01F
:10531000BDE8F08310B588B02A4B1B6807934FF0A7
:10532000000300240494059406AA05A904A801F02A
:1053300091FD049B0293059B019300942346069ADA
:1053400021492248FFF72EFFA8B100F08BFD01286C
:105350001CD0B0F1FF3F0ED11D4B01221A601D4A37
:105360005A601D4A9A6040F63602DA601B4A53685A
:1053700043F0004353601A4B1B68124B1A68079B9B
:105380005A404FF000031AD108B010BD4FF010037F
:1053900083F31188BFF36F8FBFF34F8F114B4FF023
:1053A000FF32DA620122C3F80421C3F81041586BBE
:1053B0005B6BD96AFEF734FE01F006F9DBE7FCF718
:1053C000E1FB00BF400000107C10010841510008C3
:1053D00030000010EC0F01083C10010800ED00E067
:1053E000440000106C320020034AD2F81831013317
:1053F000C2F81831704700BF6C320020014BD3F85F
:10540000100170476C320020034610B103F13400E4
:1054100070470A4B5B6B002BF8D1094A01211160E0
:10542000084951600849916040F64E11D160074922
:105430004A6842F000424A60E8E700BF6C32002050
:1054400030000010EC0F01083C10010800ED00E0F6
:105450002DE9F047514BD3F81831012B03D04F4BB6
:10546000D3F8203133B94D4BD3F810314C4A126880
:1054700001339361494BD3F81831002B40F08680FB
:10548000464BD3F8102102F10108C3F81081B8F19E
:10549000000F1FD19B6A1B6873B1424B01221A6037
:1054A000414A5A60414A9A6040F6BC22DA60404A5A
:1054B000536843F000435360384B9A6AD3F80011A5
:1054C0009962C3F80021D3F824210132C3F82421C2
:1054D000FFF7E2FC314BDB6A434542D82F4B9B6A16
:1054E0001B6833B100262D4D4FF0300A05F1380905
:1054F00025E00026294B4FF0FF32DA6232E0274ADE
:10550000D3622FE021465046FDF746FBE06AD5F80E
:105510000C21012383401343C5F80C3100EB8000BC
:10552000394609EB8000FEF7CFFD6B6BE26ADB6A60
:105530009A4228BF0126AB6A1B68002BDAD0AB6AFF
:10554000DB68DC6863689845D9D3271D3846FEF7C9
:10555000DFFDA36A002BD5D004F11800FEF7D8FDBB
:10556000D0E700260D4B5A6BD26A02EB820203EBA6
:1055700082039B6B022B28BF0126084BD3F81C31FA
:10558000002B18BF01263046BDE8F087034AD2F849
:1055900020310133C2F820310026F4E76C320020BC
:1055A0002832002030000010EC0F01083C100108E8
:1055B00000ED00E02DE9F041404BD3F8183173B90C
:1055C0003F4B01221A603F4A5A603F4A9A6040F6B8
:1055D000A902DA603D4A536843F00043536000F08B
:1055E00039FF364BD3F81821013AC3F81821D3F804
:1055F0001831002B59D1314B1B6B002B5BD02F4B3B
:105600005B6973B32D4D4FF0300805F138072B6AF5
:10561000DC6804F11800FEF77BFD261D3046FEF71E
:1056200077FD21464046FDF7B7FAE06AD5F80C2130
:10563000012383401343C5F80C3100EB8000314651
:1056400007EB8000FEF740FD6B6BE26ADB6A9A4273
:1056500024BF0123C5F81C316B69002BD7D1FFF79C
:105660001BFC164BD3F820417CB11E46012501E0FE
:10567000013C06D0FFF7ECFE0028F9D0C6F81C511B
:10568000F6E70E4B0022C3F820210C4BD3F81C4147
:1056900064B14FF0E0234FF08052C3F8042DBFF304
:1056A0004F8FBFF36F8F012400E0002400F002FF52
:1056B0002046BDE8F0810024F8E700BF6C320020EE
:1056C00030000010EC0F01083C10010800ED00E074
:1056D00010B500B30446154BD3F8183173B1144B11
:1056E00001221A60134A5A60134A9A6040F23F52EC
:1056F000DA60124A536843F000435360FFF774FEC8
:1057000021467A20FDF748FA00212046FFF7DAFC0F
:10571000FFF750FF48B94FF0E0234FF08052C3F835
:10572000042DBFF34F8FBFF36F8F10BD6C3200207D
:1057300030000010EC0F01083C10010800ED00E003
:1057400008B5334BD3F8183123B1314B0122C3F8DC
:105750001C2108BD2E4B0022C3F81C215B6B1B6B68
:105760001A68B2F1A53F03D15A68B2F1A53F3FD004
:10577000274B586B596B343101F014FE244AD2F890
:105780000C31B3FA83F3DBB2C3F11F0303EB8301E4
:1057900002EB8102926B72B91E4A012111601E490F
:1057A00051601E49916040F6F731D1601C494A684A
:1057B00042F000424A60164A03EB830102EB81018A
:1057C000C86B4068C86303EB830102EB810240327F
:1057D000904216D00E4A03EB830302EB8303DB6B8C
:1057E000DB685363506B536BD96AFEF719FCB0E763
:1057F0009A68B2F1A53FBBD1DB68B3F1A53FB7D141
:10580000BCE74068024A02EB8102D063E2E700BFD6
:105810006C32002030000010EC0F01083C10010831
:1058200000ED00E010B50C4648B10D4B596B183136
:10583000FEF755FC01212046FFF744FC10BD094B43
:1058400001221A60084A5A60084A9A6040F61142DA
:10585000DA60074A536843F000435360E5E700BF4E
:105860006C32002030000010EC0F01083C100108E1
:1058700000ED00E038B50C461546A0B1124B596B4F
:105880001831FEF721FC002D18BF4FF0FF340E4BEE
:10589000D3F8101121447920FDF77EF929462046DE
:1058A000FFF710FC38BD094B01221A60084A5A6004
:1058B000084A9A604FF44462DA60074A536843F03A
:1058C00000435360DAE700BF6C3200203000001064
:1058D000EC0F01083C10010800ED00E038B5C3688A
:1058E000DC6874B304F118052846FEF711FC1F4B61
:1058F000D3F81831002B34D1251D2846FEF708FCBB
:1059000021463020FDF748F9E06A184BD3F80C1116
:10591000012282400A43C3F80C21383300EB800097
:10592000294603EB8000FEF7CFFB104B5B6BE26A6E
:10593000DB6A9A4283BF01200C4BC3F81C01002094
:1059400038BD0B4B01221A600A4A5A600A4A9A6013
:105950004FF44762DA60094A536843F000435360EA
:10596000C0E729460648FEF7AFFBDEE76C320020B1
:1059700030000010EC0F01083C10010800ED00E0C1
:1059800080320020034BD3F824210260D3F8103179
:10599000436070476C32002070B50C460546B0B1CC
:1059A0002CB300F057FD244BD3F810212368B3F13A
:1059B000FF3F3BD069682048D0F824012E6886421A
:1059C00025D0914223D80023236001242FE01B4BD4
:1059D00001221A601A4A5A601A4A9A6040F6EB424B
:1059E000DA60194A536843F000435360D8E7134B19
:1059F00001221A60124A5A60124A9A6040F6EC423A
:105A0000DA60114A536843F000435360C9E7501A03
:105A1000834203D800232360012408E09B1A0B442F
:105A200023602846FFF7AEFF002400E0002400F0CA
:105A300041FD204670BD00BF6C32002030000010D8
:105A4000EC0F01083C10010800ED00E0024B0122C0
:105A5000C3F81C21704700BF6C320020034678B1A8
:105A6000186B0378A52B0ED10346194613F8012FA6
:105A7000A52AFAD0C0F101000844C0F38F00704796
:105A8000024B5B6BECE70020F7E700BF6C320020B5
:105A9000014B586B704700BF6C320020064BD3F8A7
:105AA00004313BB1044BD3F81801B0FA80F040093F
:105AB00040007047012070476C320020002860D001
:105AC00038B50446314B5B6B83420ED0304B01221C
:105AD0001A60304A5A60304A9A6041F23D02DA60F8
